:03000000020522D4
:0C052200787FE4F6D8FD75812D020136CB
:0B052E003F065B4F666D7D077F6F008E
:10013600E4F515F514F513F512F510F511AF15AE36
:1001460014AD13AC1212039212031AEF70051205C6
:100156001480F5E516C3940B5009E5165403C394B1
:10016600034006E516640C706DE516B40D00505E8E
:1001760090017DF82828730201A40201A90201AEAC
:100186000201D40201B30201B80201BD0201D40288
:1001960001C20201C70201CC0201D40201D17517C6
:1001A60007802B7517088026751709802175170497
:1001B600801C751705801775170680127517018044
:1001C6000D75170280087517038003E4F517AF173E
:1001D6001203FD020143AF15AE14AD13AC12EC339E
:1001E6005003020143752005E51624FD604424FCF6
:1001F600603E24FC603824FD602C14602F240260CD
:1002060003020143E5106003020143AF15AE14ADCE
:1002160013AC127B0AFAF9F812049F8F158E148D0F
:10022600138C1202014312024F02014315201520BE
:100236001520152012024F85150B85140A85130902
:0902460085120885201102014314
:10024F0085150F85140E85130D85120C751001E59C
:10025F001124FE602714603F1460512403600302D1
:10026F0002F0E50B250FF515E50A350EF514E50936
:10027F00350DF513E508350CF5128065C3E50B95C3
:10028F000FF515E50A950EF514E509950DF513E52E
:10029F0008950CF512804AAF0FAE0EAD0DAC0CAB3E
:1002AF000BAA0AA909A8081200038021AF0FAE0EEE
:1002BF00AD0DAC0CEC4D4E4F601DAB0FAA0EA90D42
:1002CF00A80CAF0BAE0AAD09AC0812049F8F158EA8
:1002DF00148D138C12800A74FFF515F514F513F5B0
:1002EF0012E4F511AC12EC3340167FFF7EE07DF582
:1002FF007C05AB15AA14A913A812D3120052400AF9
:0B030F0074FFF515F514F513F512222C
:1003FD008F21E510600CE48F15F514F513F512F54A
:10040D0010227F7F7E967D987C00AB15AA14A913D0
:10041D00A812D31200525028E47F0AFEFDFCA81248
:10042D00120003A804A905AA06AB07E4FCFDFEEB28
:10043D002521F515EE3AF514ED39F513EC38F512D5
:01044D00228C
:10031A00E4F52175900FE590640F6069120514E504
:10032A0090640F606075900FAF90EF24F560102411
:10033A00FE601114601324077012E4F516800D751F
:10034A001601800875160280037516037590F0AFC2
:10035A0090EF2430600C24F0600C2430700E74048A
:10036A00800674088002740C2516F516C3E521640C
:10037A008094B2500DE59064F060071205140521CF
:07038A0080EA7F01227F00E1
:010391002249
:080392008F248E238D228C21A3
:10039A00752601AC12EC334043752507E525D39445
:1003AA0007504FAF24AE23AD22AC2185252B120472
:1003BA004EEF7014E5266010E525D39400400974C9
:1003CA00182525F8E4F68010EF90052E93FF74188F
:1003DA002525F8A607E4F526152580C0751F797529
:1003EA001B50751D50751E50751C5CE4F518F519E7
:0203FA00F51AF2
:0103FC0022DE
:08044E008F2A8E298D288C27CE
:10045600E4F52CF52DC3E52D952B7480F8652C98C5
:100466005023AF2AAE29AD28AC27E47B0AFAF9F867
:1004760012049F8F2A8E298D288C27052DE52D7035
:10048600D4052C80D0E47B0AFAF9F8AF2AAE29AD60
:0804960028AC2712049FAF03FC
:01049E00223B
:1004E300E4FFEF1392A2EF5402C31324FF92A3EF8E
:1004F30054041313543F24FF92A474182FF8E6F501
:10050300807E0AAD061EED70FAE4F5800FBF08D2B7
:0105130022C5
:0D0514007C0AAF041CEF60051204E380F5C3
:0105210022B7
:10000300E88FF0A4CC8BF0A42CFCE98EF0A42CFC9C
:100013008AF0EDA42CFCEA8EF0A4CDA8F08BF0A41A
:100023002DCC3825F0FDE98FF0A42CCD35F0FCEB79
:100033008EF0A4FEA9F0EB8FF0A4CFC5F02ECD393E
:0F004300FEE43CFCEAA42DCE35F0FDE43CFC22AB
:10049F00C2D5E830E70FB2D5E4C39BFBE49AFAE488
:1004AF0099F9E498F8EC30E717B2D51204D5120099
:1004BF00A4E4C39BFBE49AFAE499F9E498F8800367
:1004CF001200A430D50DE4C39FFFE49EFEE49DFD12
:0404DF00E49CFC227B
:10005200EB9FF5F0EA9E42F0E99D42F0EC6480C825
:0600620064809845F022C5
:1000680075F008758200EF2FFFEE33FECD33CDCC4F
:1000780033CCC58233C5829BED9AEC99E5829840D2
:100088000CF582EE9BFEED9AFDEC99FC0FD5F0D6AF
:10009800E4CEFBE4CDFAE4CCF9A88222B800C1B9D9
:1000A8000059BA002DEC8BF084CFCECDFCE5F0CB17
:1000B800F97818EF2FFFEE33FEED33FDEC33FCEB50
:1000C80033FB10D703994004EB99FB0FD8E5E4F90B
:1000D800FA227818EF2FFFEE33FEED33FDEC33FCF8
:1000E800C933C910D7059BE99A4007EC9BFCE99AEC
:1000F800F90FD8E0E4C9FAE4CCFB2275F010EF2F31
:10010800FFEE33FEED33FDCC33CCC833C810D70730
:100118009BEC9AE899400AED9BFDEC9AFCE899F86B
:0E0128000FD5F0DAE4CDFBE4CCFAE4C8F922FE
:00000001FF
